:020000040000FA
:100000007C72F0109811501014324014D0117F9966
:10001000D851501044191C0C30514006F062D8627F
:1000200030514006B060D46130514006F00160624A
:100030001C0C30624006F0519C614006F0519C61FE
:10004000A001E000D86214256C613FABD862DC608F
:100050004006F0516061000230514006F061D86105
:100060009C0154217011D851400630626062E060FA
:10007000E0609860543CD8455051543350100E4DB8
:100080001C0C1C0C7FAAF010D85150105456407E06
:1000900090517F99D851442CD461D464D461442CBC
:1000A000D4619466D461442C1EF4D851400630616A
:1000B00060614006545C0E06400630646064400691
:1000C00014620E06400670662066400614680E062E
:1000D000505154551C0CD8514DC8546F147A70604F
:1000E00054772851400630626062E0602C60E00086
:1000F00098005471C0515D96B042100054843F9DE9
:10010000B04210000E4D1C0CD8517F9F4006B042EB
:10011000FC75D000548B54CA54D114CE506754AFE0
:1001200054AF3051A4BB4006A448AFADD8513FAB4B
:10013000D801DC609C6104AA6061DC639C6404AA51
:100140006064DC65DC6604AA206650511492178C4A
:1001500049841C0CE000D8623FAB9C010002305186
:10016000A4BB4006E4C2AFADD8513FABDC609C619C
:10017000D862505144B0BFF365A83F9DB042100013
:100180000E4D1C0C90517F99D8513F9DB0421000EC
:10019000540A540CC051A447D851548EC051A4479E
:1001A000D851506714D514D554563FA14006B042DB
:1001B000D81014348FA6D8529853D854504C54F6B3
:1001C00054E214F2DC4D9C4C9C61DC60400614E966
:1001D00054ED504C54F654ED14F27F969860456AF5
:1001E0007FA65E304006804D944D28521060150366
:1001F00054FA54FF506115031C0C54FF1C0C4006AC
:10020000C061D46128528060AFADA04C1000552968
:10021000A001150A7F99E000A061D8613FABEF967D
:100220002C607F99E000E04D984D3FABEF966C4C11
:100230008060A04C10005529004F54EDD854C06187
:10024000E04D4006A4ED5529400668534006704D28
:10025000204D304CE00098001524D461D053454720
:10026000D8621C0C64114006BF999C01E0119C01EE
:10027000154B600160016001600160016001600177
:10028000600160016001600160016001D46150544F
:100290000D6A1574D4614006504CD46180604006EC
:1002A000B04DA061980055584006A04C6860155AA2
:1002B0004006A5624006A04C400615604006E56673
:1002C000686055674006156A40062C60A04C2407FC
:1002D0004006504CD8615052000200020002400615
:1002E000C061D4613FAB00028060A04C40065579EC
:1002F000554A7F969860804DA06115668FA69853E9
:10030000984B504C159F5585559BDC4D9C4C9C61E2
:10031000DC604006558C54ED9C64DC6340065591CE
:1003200054EDDC66DC654006159654ED504C159F87
:1003300054ED559B54ED4006804D944D684B7F998C
:10034000E000E04D984D3FABEF966C4C9C4F704DEC
:10035000985015AF400668534006704D204D304C04
:10036000E000980015AA45BDD464D461D46445BDAD
:100370009466D461946645BD1EF4704BD8521060EB
:1003800015CC15C355C8506115CC000255C80002E4
:100390004006C061D46128528FA6D8548060A04F17
:1003A0004006A5D5D461D05315477F99E000A061E0
:1003B000D8613FABEF962C608060A04F100015D243
:1003C000354654EDD854C061E0504006A4ED15D236
:1003D0000F3D069E40063061D044D42346B21060E3
:1003E00055F254ED8633A05110008000162455FEBE
:1003F000C632D8517060D8013FAB56135051160524
:10040000C405D8514006306156138000D851800091
:10041000D0007F99D84C4006F0619C4C4006B060FB
:100420009C01A04C9C01D044D4258FA6D85494475D
:10043000D461944D0634D449D461D4640634944BC9
:10044000D461946606341EF4D8513FABDC479C4619
:100450009C49DC48DC4B9C4AC051D0007F99400647
:10046000B06055FB000D000E106056435638563DE7
:10047000506156430002563D0002CFABD8524006B1
:10048000C06190511547D852D46190511547068FDD
:100490001C0C0E4D3FAB5C0B506756645664069EB9
:1004A000246740063061D044D42346B250511659D7
:1004B0001C0CA4BB4006E65F2407644214B39051B1
:1004C0003F98D8513FAB540F4DC81C0C1C0C5F8596
:1004D000CFA42C6A4006D0007003D4644006D06AD2
:1004E000300194668FA65C0B069E3FAB5C0B40060A
:1004F0003061D06AD40190677C742C6A5067568A48
:100500001C0C40063064D06A93FD40067066D06AC9
:10051000D3FF1C0C30625D6FD044302A5DA930617E
:100520004006B000D8623FAB9C614006B0606001FD
:100530006062DC604006B000606100024006645307
:10054000068FD464D461944D3062984E068FD46285
:10055000204EE060A04CD84C56AED8459466D4618D
:10056000068F1E733FABD851106016D216B816CA4C
:100570009C629C6198607FAAD851106016D256C1C7
:1005800056CD9C6198607FAA6C51106016D2000213
:1005900056CD0002100016D150613FAB16F516D1B2
:1005A00016F546D1A5084006A6F8D46164114006A8
:1005B000BF99D461DC116C6174BC4006B060E54841
:1005C000D84C4006504C4006BF996C4C4006BF9931
:1005D000D4614006504C984D3FAB9C014006504CB6
:1005E000D801704D606110007F969860D86100025C
:1005F000EF9A4006A70CD46164114006BF99D461FC
:10060000DC116C6135E04006B060E4A856E04006BD
:1006100030626062E0602C602851400630626062A7
:10062000E0602C60E000981210121012170756DCE0
:1006300017024DC8571D172017204006C061D4610E
:100640007F9A2C60D4616001980057284006C00151
:10065000D4617060E000D8015735D0003F98E000C9
:100660004006E0609860C061D861400630619450F7
:10067000068F0E7B400319217ED596A8E1F45466BF
:1006800062BEFB36B339009E35EF351C0E35400691
:1006900030626062E0602C60400630626062E06060
:1006A0002C601C0C376357553795D8524DC8575F8F
:1006B00057A04006C061D46174A79C5298538F998B
:1006C000E0601000179B1791576C50613FAB576962
:1006D000576CD861986000524006C061EF99D461B0
:1006E000945046B250515796D4619450D4610E7BC9
:1006F000400616A02798B9D1CFFD0520209FFA37D4
:10070000F1E2071E6DEEB81FDFA006260E63FDACFA
:1007100084A4351C0E3500524006C061EF99D461A7
:1007200040534006C061EF9AD4611C0CD0007F9901
:10073000D851442C57741000179E57695769079F6A
:100740007F9A576A000000000000000000000000CF
:100750000000000000000000000000000000000099
:100760000000000000000000000000000000000089
:100770000000000000000000000000000000000079
:100780000000000000000000000000000000000069
:100790000000000000000000000000000000000059
:1007A0000000000000000000000000000000000049
:1007B0000000000000000000000000000000000039
:1007C0000000000000000000000000000000000029
:1007D0000000000000000000000000000000000019
:1007E0000000000000000000000000000000000009
:1007F00000000000000000000000000000000000F9
:1008000044313043904CD8261C0C4431C043440240
:100810004431D042700014024431D04280001402AE
:100820004431904C30265D964431D0427000904C5B
:100830009C265D964431D0427000904C6C261C0C76
:1008400044313043541D4431D0428000541D443162
:10085000904CC026904CA0264006EC0C904C9C2658
:100860001DA87044D84C5010284C000200025010B3
:100870003043184510601C0C1DA81C0C1DA85045C9
:1008800054421C0CD8455010143840F01DA850108C
:100890004DC81C0C1DA81C0C5010545354004DC8BE
:1008A0001C0C1C0C1DA84DC81DA81DA81C0C50100C
:1008B0005DA3400FD044302A5D963459F043D000F8
:1008C0003F98984D7F9F4006F043D84C0004D000DD
:1008D0003190D8027F9C4006F043F48DD000147014
:1008E000704D40064802147A704D40060C02147A8E
:1008F000804DF002904CD99040037F9A4006F0431F
:10090000F48DD0001483C002B04D1000548E1DC26F
:10091000548E0000000030025484400C28681C0CE7
:10092000D99610B4549C50E0549C510C549C1138EE
:10093000549C1164549C449BEFA52407D00023FFD2
:100940006D9A3FAB999D74A89997D19D506B14C82F
:10095000400614C8319AD19DD86BF543D19D986A51
:10096000119D54BDD845706A9844503754BD00005D
:100970000000D837D59C94695888D59CD19D94693E
:100980009037C06BA19A4006A888719DD8375888C7
:10099000350E2D9D119714A404CC94699037946959
:1009A0009469D4619037D461D4619463903794632F
:1009B00094639465903794659465D4679037D46751
:1009C000D4673FAB9C45400654E7806A986AD46B75
:1009D0009037D46BD46B106A3FAB14F2806A986A7C
:1009E0007FA69C45D837400394694006E4F89406F6
:1009F0008000D8687C9AF0011C090004C06BD86B99
:100A00007C17B0069869CFAB984D553DD9963FAB52
:100A1000999D74A89997D19D506B5510400C15174E
:100A2000350E2D9D1197150A8FA6999D5888819B8B
:100A3000D19DA0684006151D5510D19DC06BD19D5C
:100A4000D86B8C9AB19BEF9CDD9BBC9AD19DE069E1
:100A5000D99C119D54BD14B5D8683FABD84C3543D3
:100A6000F06BA19AD86B800055040004CFAB984D71
:100A70009C6BF5431000D0009800107705620000D1
:100A800015415083056201FF5545508F0562AF94B3
:100A90005549509B05620000154D50A705620000A6
:100AA000555150B3056200001555104D000000006F
:100AB000155A588D504C555D54F3D0002FFFE54723
:100AC000D83714CD984EE04D1000804E156A556809
:100AD00090020002984D4006244C904C0002D9959B
:100AE000C016E5721000EC228000E5AFA0021000F5
:100AF000E3001595157BC002EF99EF999C16AF980E
:100B0000A00240062407DF009F019F02DF039F042D
:100B100071989002158B9706D708970A970CD70EF5
:100B2000D710A8B7400658B255B31000A301559B83
:100B3000EFA645B400011000A30255A1EFA645B4ED
:100B400000021000E30355A7EFA645B440031000D0
:100B5000A30455ADEFA645B40004100055B39001B1
:100B6000EFA645B4400505B3D99990027000D802AC
:100B70007FA6A19990026EFFC1999002558300044F
:100B80003FABD9D199CD3F98D9BD8F9A4006060B7E
:100B90008FA34006460975D298033FABDA2705D3E9
:100BA000588D05CD43009C02D84C7F96D8169817D7
:100BB0003F97DB049B03DB02DB019B00C8B79B056F
:100BC000DB079B09DB0BDB0D9B0FC8B89B06DB0823
:100BD0009B0A9B0CDB0EDB10CFABD86B9877D883CE
:100BE000D88FD89BD8A7D8B3D837762898B4A62959
:100BF000D8E0A629D90CA6299938A62999647FA6F8
:100C00009A103FA89860CF9BD060D9B210600602BE
:100C1000D825D9CCD9A9D9BE99AB99ADD9AA99B0C3
:100C2000D9B199BF99A199A299C2D9C399C4D990B0
:100C300099919992D993D9C53FA799AEC6264006F6
:100C4000460976279A23C946D99F004C40740A0862
:100C500040B4002CD80E9C02980A3FAB40064208D4
:100C600012104633463A3FAB9A107639981748D55A
:100C70003FF47FF53638981751BD464446449DBD34
:100C8000F943D9BDE8E6466311AE464748D599AE6B
:100C9000CFAB99949DCCEFACD9CC91CC51B251CC87
:100CA000464B465A400A1194000099AE48D5999493
:100CB0003652064CEFA691CCD9B2F9439994393DFE
:100CC00091CCF8DBE194400642089A137F9698177E
:100CD0007FA69A1048D5D80E9C02980A4956393BEF
:100CE0004006440DEF9CDA14794208594402500141
:100CF000393BF214D19D986048D5D80E9C02980AD1
:100D00004956393B4006440E4672D80E9C02980A5A
:100D100049563FAB9C2599943FA440064A09393B6C
:100D2000B194DD94DC11999E06BCF93BE6C946C33B
:100D300006BCF93B800046C346B8C6A1E19410004A
:100D400006A7401206A78FA6B1CD99CD06AB7FA608
:100D5000B1CD100048D5DD94AFA1467246B88FA63C
:100D6000B1CDEFA699CD3F9EEF9CDA1448D548D57A
:100D7000DD9EE00098110002801180118011801129
:100D8000801180000002E194100006AE000006AE63
:100D90000002FFE007FF000000000000000000006C
:100DA0000000000000000000000000000000000043
:100DB0000000000000000000000000000000000033
:100DC0000000000000000000000000000000000023
:100DD0000000000000000000000000000000000013
:101000000004782CDC0615D19409382DDC0658D85C
:101010009409382EDC0658D89409782FDC0618BAC3
:1010200094093830DC06562A94097831DC06566B70
:1010300094097831DC06167D94097831DC065685F2
:1010400094097832DC0658D8D00F00000000000068
:10105000D00F00000000000004030800080008038F
:101060004402440108009450900270002802D80104
:101070002404BD159C02945090020400DC509C0492
:10108000DC50004F9C02D0007000D804BD159C02BB
:10109000900254007D15F04FE0500002D801240466
:1010A0002451BD154006D00074019C51D804305124
:1010B0000002D99A400690023001D59C788C9C049D
:1010C000D99614A1D99A400690023001D59C788C0B
:1010D0009C045490788CD80130026406000414CE2D
:1010E000788CD801C068186DD868788CD80414FD45
:1010F000999B8FA56C02788C9C0415060004D99AE4
:10110000788CDC0698693002552C788CD80415351B
:101110003196D804900200020490CFABD837400338
:101120008FA540064609589640066623503718A1F9
:101130007FA5189D78A8D804422340064A099469DF
:1011400094067FA540064A09788CD804000414CD83
:1011500022B99C0299944006D0003001999878B643
:10116000DC06156F31959806D19400020403B7464A
:10117000F7FC58D1D80E4006640A3F979F04DF035E
:101180009F029F01DF00EF966C16999ECFAB999E50
:101190004006C8B8D710D70E970C970AD7089706FD
:1011A0009406119E78B6980658BD4006640A300E23
:1011B00098069409D00F481510031819201B680FC2
:1011C000701E781CC013C81D901F9800E00038EDF9
:1011D000B1B0984708FA48EC48854FC0984751AAE3
:1011E00000023002EFA6D9C0490038F9DC0699C1E7
:1011F000040014013002EFA6D9C008F595C1940689
:10120000CF980004F1B1AF98D9B1400300027FA696
:10121000D9AA24049C029450484AD9BE087448852F
:1012200051AC5916590700029002000290020001C9
:10123000D9AF9803B944A9459859000231AF59195B
:101240009803B944A9450002000E40090004D810D3
:10125000C010C010C010C0109C1000029812801264
:10126000801280128012DC120002E000E000E00038
:10127000E000E0000002001F03E0BC00085908A9DC
:1012800008D14862700007FF40FF4300001340117F
:101290000015400A7FA040064A0900028FA04006C0
:1012A000460900023FA240064A09000240063015E6
:1012B000D5ED0002400630626062E0602C60D80725
:1012C0000002D84500023FA140064A090002CFA112
:1012D00040064609000211BF00027FA699BF900296
:1012E00000017D15F002A0040842100011BF197121
:1012F0007FA699BF0002C980A002A0040842500145
:101300000403984751AA5986300258F32802197BE2
:101310009C02D8583FADE1BF4006E993099E49932E
:1013200008787FA699BF0004CFA2400646093FABCC
:10133000D9AA400300589C02D85849933FABDDC25C
:101340009DC3DDC4400659A70004900200010002BD
:101350009C02D858000479B108A9473E50014003C7
:10136000005843E849B2421C021D021E4509450FC0
:1013700009D5053B00010002000400080010002010
:10138000004000800100020004000800100020005E
:1013900080004000000100024003000440054006B8
:1013A0000007403F007F1FFF2AAA7FFF8000C10087
:1013B0009540D555D56A9FF1FFD5BFF0FFF1FFF8F5
:1013C000BFF9BFFAFFFBBFFCFFFDFFFEBFFF5800E8
:1013D0003FFE49CA49E78000100059F859F859F80A
:1013E00000028000100059F859F8100059F8000266
:1013F0009C02DA246A25000489D7F1BDE9D7D9BD5A
:10140000400332274006EA050A0879C9DA274894DA
:1014100052274A0C0A074A0C48947A0F48451C0385
:1014200000000000000000000000000000000000BC
:1014300000000000000000000000000000000000AC
:10144000000000000000000000000000000000009C
:10145000000000000000000000000000000000008C
:101800004006246830049869FF989841ED15D84047
:101810005C1364061C0FD8677069D80450135C1AF7
:101820005037187028689068700010001CE1007F25
:10183000D813BC17D81050101C775DD8BFA6100065
:101840005C3B9068C00110005C5DFFFB286898421B
:10185000AC791000EC9C1C3070442C429010BC9C65
:101860004006EC2EA040D804BD15EF9C9842901085
:10187000BC9C7FB1D8107044D84C28689068800018
:101880001000284C5C439842BC9A40065C49704169
:101890002C42904CC0262C42BC9940061C59BC9A44
:1018A00040065C5B7042D804BD15EF9C98429010D6
:1018B0007C9C70442C4290107C9C3C97F010AC6255
:1018C00010005C6BFFF7AC251000D0008C745C6DD1
:1018D00090678C725C6D90678C742C6A9842901043
:1018E000BC9C000240064006000240034006501027
:1018F0005C8FBFD2286890687000D8439842BC992A
:1019000010005C831C883C98D804F010D0001CBDEB
:1019100070442C423C98D804F010D0001CBDD80470
:101920005010D0005CCD5067540054005442001356
:10193000447FBFC0BC007C00BC2E5D485E275F7A40
:101940001EE51DB91D3B1D345F615D445D935D5611
:101950005EC05D725D995EC35F5B5F495F4C1F5007
:101960005F5E1DDA5DF01E085EBD5F135EF91DFE51
:101970001E1C5DE85CBA1F475F58540054051408EC
:10198000540C1410541414205427141A14235447BC
:10199000144C14571437145D543F16555722171919
:1019A00017521754164756495F85566815E8564C26
:1019B00016745CDC568C16777069D80428689068B9
:1019C00080009842BD15DC42FC9B4006FFA1D00080
:1019D0005CE90D111C124D0B1C124D0E1C120D1149
:1019E0001D2C4D0B1D2C4D0E1D2C0D111C394D0B9E
:1019F0001C394D0E1C390D111D2F4D0B1D2F4D0E79
:101A00001D2F0D111D324D0B1D324D0E1D320D11AE
:101A10007FAFD8105C7AD044C0261D10D0448027F8
:101A20002C427042AC7910005D1843FF70442C4288
:101A300040063061D042D40150675D280002400664
:101A40003064D042940340067066D0429405000290
:101A50003062D042D80200023FB0D8101C213F981B
:101A6000D8101C217C221C3A4006D0423001D4619F
:101A70003FABD8625C0BD0423002D8624006D04205
:101A80003001D4617FA65C0B2407D04270001D3763
:101A90004006D0423001D4614006D0427003D46485
:101AA0004006D042700594668FA65C0B4006D0427B
:101AB0003001D461D06AD40190677C742C6A50677D
:101AC0001D6D1D6BD867D862D464D06A93FD94668F
:101AD000D06AD3FF1C0CD8621C0CD8679C62D06AF9
:101AE00097FF1C0C4006D0423001D461D06AD4016B
:101AF00090677C742C6A50675D8B1D4C4006D04209
:101B00007003D464D06A93FD4006D0427005946699
:101B1000D06AD3FF1C0C4006D0427003D4643062FC
:101B2000D06A97FF5D50286890687000D042980096
:101B30001C0C286890687000D042E000D804BD15E5
:101B4000D0003400D8438D15A068E069D044D82A6D
:101B50003043D804BD15EF9CD86850045C025DB1D9
:101B60005C02C068EDC7100070446C6890682C007F
:101B70005DA990683001D042E000D804BD15D000C6
:101B800034005DA97069D804906830015DA9042D06
:101B9000106000025DCC1DD6506100021DD01DD624
:101BA000506200025DD41DD6900200019002000236
:101BB000906850014006D0427003606440065DE1C9
:101BC0000E064006D0427005206640065DE80E060F
:101BD0004006D0423001606140061C0C0E061C0C11
:101BE0004006D0428003606440061DF70E064006A2
:101BF000D0428005206640061DFE0E064006D042FB
:101C0000C001606140061C0C0E061C0C7FA61E580D
:101C10004006D0427003D4644006C00160644006B0
:101C20005E120E064006D042700594664006C00162
:101C3000206640061E1C0E064006D0423001D461CC
:101C40004006C001606140061C0C0E061C0C4006DC
:101C5000D04230026062D042E000E06098601C0C2C
:101C6000D8451C0C9002700028029842D0423001E6
:101C7000D8623FAB9C61D8514006F0629C6240063E
:101C8000B0606062D04270009C514006F0516062CA
:101C9000DC604006F051606100023FAB9C62E000F6
:101CA000D8010002A061D8610002E06098600002E3
:101CB000D84500027FA5D852400664530E36D4643E
:101CC000D461944D3062984E30522C420E36D4621C
:101CD000204EE060A04CD84C1E6ED8459466D4616E
:101CE00030522C420E36944E6062E060A04C9860F8
:101CF0004053D84540537FB2984290027000D85468
:101D0000E000A0029855D8434006D0003004D461CA
:101D100094475E8DD8548FA56C430E364006904391
:101D20003002606150541E8AD05540054006244C54
:101D30004DC81E9D1EAD8F961E9E7F96984D4006E7
:101D40006800A062D8623FABE04DA061D8613FABB4
:101D5000E04DE0609860D861004CD8625EAAD8512E
:101D60004006F062D8623FAB9C614006F051606271
:101D7000DC604006F051606100020E5A3FAB5C0B24
:101D80007FA5D8545EC6CFA8D8547C72D8520F3DD8
:101D90000E5C40067047D461945040063049D464CC
:101DA0004006704B946630542C420E5C9447D461CC
:101DB000D449D464944B946630542C420E5C9450B5
:101DC000D4619466D449D4641C0C50675EFA5EFA00
:101DD0000E360E4ED464D461D4640E360E4E946624
:101DE000D46194660E360E4ED4619466D464D46188
:101DF0001C0C0E5A40063061D4640E360E4E7FA580
:101E00002C4240063064D46194660E360E4E7FA597
:101E10002C42D464D461D4640E360E4ED4619466E0
:101E2000D4618FA65C0B40067066D46194470E3671
:101E30004006C064D461D4490E367FA52C424006CA
:101E40008066D46194660E3640067047D461944B28
:101E50000E367FA52C4240068047D461206640069E
:101E60005F320E060E36D449D464D46160644006F5
:101E70001F3A0E060E36944B5DEB400630619447D8
:101E800040063064D44940067066944B00020E361A
:101E90001C0C0E360E4D1C0C4006D04230015F5417
:101EA0004006D0423001D461944D3FABD80414DADF
:101EB0007042986A1C0C3FABD804146B7C17D80492
:101EC000147C50675F6B5F6B4006D0423001944DCD
:101ED0003FABD804157E4006D0427003D464400660
:101EE000D042700594668FA6D8674006D042300174
:101EF000D4615F67D04210001C0C5F7F5F85D042C9
:101F000050011C0C1C0C5F851C0C4006C061D46188
:101F100050675F925F924006C064D464400680665A
:101F200094661C0CC062D8621C0C7FFF7FFFDFFF31
:101F30008000200010000800040002000100008062
:101F40000040002000100008000400020001000B07
:101F5000400A400900074000BFFFFFFEFFFD0019D7
:101F6000800CC00D004600000000000000000000D2
:101F70000000000000000000000000000000000061
:101F80000000000000000000000000000000000051
:101F90000000000000000000000000000000000041
:101FA0000000000000000000000000000000000031
:101FB0000000000000000000000000000000000021
:101FC0000000000000000000000000000000000011
:101FD0000000000000000000000000000000000001
:101FE00000000000000000000000000000000000F1
:101FF00000000000000000000000000000000000E1
:10200000471A472C7FA69DAA9841DC60D843D00090
:10201000040906AB4432443244324432443244323E
:102020004432042B042B06AB06AB06AB06AB06AB67
:1020300006AB0430449D44E306AB06AB06AB06ABEF
:1020400006AB06AB46BE04B704AC442906AB050795
:1020500044A8084254033C75F1A01000443206AB7A
:102060003FABD843519F44374437043648854485B5
:1020700011AD3FAB99AD043C904338DBF93B984838
:10208000319FD857466F3C75F1A01000444FD05394
:10209000DDA1981280128012DC12A043045CD053A0
:1020A000DDA198603FABD8613FA80EAF9C61A04313
:1020B000D861045C2C60046AD05399A1C19FD053AD
:1020C000A47E40061464047B3C75F1A01000046AF1
:1020D000C19F447C4E3244833C75F1A0D000046F14
:1020E00004744006C062D4629C62D05399A49C617F
:1020F000D05399A14468519FD99F48854012001040
:10210000400A400540000A7C16B1919F748998539B
:102110000002000400040004000400044003400323
:1021200040034003400300020002000200020002DC
:10213000000000010001400040003FAB99A139467A
:10214000D99F054F3FABD9A099AB790FD85248859D
:102150003FAB99A2794704A044D644CB7FA5D05386
:10216000EFA06DA011AD3FAB99AD44B6488544D604
:1021700004BB7FA604AF24024485D05334D19847D2
:10218000EFA6D8463FAB9848DC4706A17F9C98480D
:102190009C4606A1000124024485D05334D1D84680
:1021A000EFA6984744C2400540034000240289241A
:1021B00004DEC92504DEC92604DE4885A19F400649
:1021C00054E200020001DC41D9AA3F98D9BDCF9D5D
:1021D0004006060B8505400646093949D8430004E8
:1021E000904351B2EFA644F8EFA68000B50644FB39
:1021F0008000B50680009043D9B24003504304EEFE
:102200003FABD9D1DA11DA244885004CF7FF519F52
:10221000EFA6050BEFA6D99F448511AD45144511D6
:102220004511705305264521105398530526754DC9
:102230002DAB7053D84940062DA1083314CD304939
:102240009853452469AD48852402452EAFAE100051
:102250000002000048850002240244853FABD053B1
:1022600099A1D05399A49848D0538FA0F1A0B54E0E
:10227000D9A0D0533546D857466FD0533549D99F4A
:10228000054F8FA56D9F054FD0537922D99F00012F
:10229000000E40050004000D40094003BFFC319FC3
:1022A0009811855A0004D0119DB24006A55869AE18
:1022B0004003000208003FABD862057A456005750F
:1022C00005831060DC604566056DAFADA58F986035
:1022D000056B3F982C607FA5455CDC60A58F1000E6
:1022E00005670000EFA68000056740069062358C08
:1022F00094480002106000020002157ECF98B06082
:1023000098609002000140069062358CD4610EAF57
:102310009448606145934B8547AE1CCC73335C2079
:102320009448D4610EAF0842154B459F9C629C6156
:1023300098604593459F4593459F061A45939C0297
:10234000D845905405A205B09043705CF94309202C
:102350004006D0003001D4614E3240470E96004511
:10236000705905A8905405B305B606AD4006D0597E
:102370003001D4617924D99F3FABD8620E96065BB9
:1023800000524E3245E450617F9C05C78F9CA0618E
:102390004624495A495A462B495A106045D245D2DB
:1023A00080009860504505E005DC1060000045DEC7
:1023B00005D9DC60BF969860084256208F9645DBB1
:1023C0008060BF96800045DB2C7171C7238E0E396B
:1023D000F3574E3240479C629C61DC60400655F1E9
:1023E00006AD4622462B05DC106045F945F906ADE1
:1023F00006AD75E82C604E3205E63F9BA061462491
:1024000045CA4E3240479C62E000D8623FABA061B3
:102410004624462B9054060B46143043E059D8020C
:102420009C619002D80105DC3FAB060E4E3240475E
:10243000061A46039C0298487C729847495A1047EE
:10244000461D40489C61E000D8610002E060986051
:102450000002D8450002504506AD000206AD9C02C0
:102460009841106046394639EFA6986044CBC06168
:10247000063B04BB9C61E65AD8613FABE0609860C4
:1024800046447F969860D8613FA4985339490EAF6F
:10249000D06038DBF93B98483FAB9C629C61986008
:1024A0009D9FD8571000D99F466F10530645C946C7
:1024B000D99F4041053E9C0298413FAB98483C75EE
:1024C00006A13FA406A11060466C466CEFA698607A
:1024D00044CBC061D861066D04BB392506459C021A
:1024E000D840393BF0579811DC1198557FA6F0572A
:1024F0001000467B0683DC48493598487F99F057A1
:1025000010007FA5EFA6D8570004D05551B2068918
:102510000000EFA698569057F69D4006E04840060A
:10252000569B9057C69DB056E0488000D0559DB24E
:102530004006A69B69AE40030040001F03E0040074
:1025400047E098557FA5D8579C02D8404684466FEF
:1025500076AA484556A8790FD852094AC6B5A0525E
:10256000400656B3005249B2434148FE7FA6D9AC5B
:1025700049880967070049008FA646B7CFA44006DF
:102580004609498848853E95D99FD8577FA6F05778
:102590009C579811DC11D00051B246CF0000EFA635
:1025A0009057F69D905746D406D649279848CE9521
:1025B000A19F1000EFA646DD0000D857466FC19FCF
:1025C000E92410009D9FEFA606C43FABD99FA6FE4D
:1025D000D00051B206EC0000EFA6BF9C9848919F36
:1025E00076FC06A1C19FA6FE10009D9FEFA606E601
:1025F0007924D99F052C00524000000140030004BB
:1026000051BE070648850706D9BE07143FAB9DBEDD
:102610000004087851AC0718488547167FA5D19D5E
:10262000A068D19DD8684003099B48853FAB070F40
:102630007FA6070FD80111BF471F300148457FA56E
:10264000D858905811C24725072850584720474C62
:102650003001905899C20874D80151AA473130010D
:1026600048457FA599BF3001DDC49DC3DDC2100080
:10267000474C473B474C095230010874794208598E
:102680004743500108D1099E474A087840037FA676
:1026900099BF48853FAB074849B242860000000019
:1026A000000000000000000000000000000000002A
:1026B000000000000000000000000000000000001A
:1026C000000000000000000000000000000000000A
:1026D00000000000000000000000000000000000FA
:1026E00000000000000000000000000000000000EA
:1026F00000000000000000000000000000000000DA
:1027000000000000000000000000000000000000C9
:1027100000000000000000000000000000000000B9
:1027200000000000000000000000000000000000A9
:102730000000000000000000000000000000000099
:102740000000000000000000000000000000000089
:102750000000000000000000000000000000000079
:102760000000000000000000000000000000000069
:102770000000000000000000000000000000000059
:102780000000000000000000000000000000000049
:102790000000000000000000000000000000000039
:1027A0000000000000000000000000000000000029
:1027B0000000000000000000000000000000000019
:1027C0000000000000000000000000000000000009
:1027D00000000000000000000000000000000000F9
:1027E00000000000000000000000000000000000E9
:1027F00000000000000000000000000000000000D9
:1028000046E4570305B33FAB99AD790FD85211ABEE
:1028100044194419440B3C75F1A0100044100414F1
:10282000519F04D404D4041481AB99AB096741AB24
:1028300040183FABD9A081A1A4184006A44E400681
:10284000743E9406905444234426047E105A444C0B
:1028500004D4042D29AF491E04423F9899AD890F35
:10286000A05240061434444044AE51A004D49DA567
:1028700049184006743E9406044E04001801BFFA3D
:10288000306249188FA3B1A1A43F4006544E3926A7
:10289000D99F31AF0692044EEFA64918C459E1A161
:1028A0001000EFA64454445B98604988DC60A45A49
:1028B0004845002012ADD1A1745E484554D414E0BF
:1028C00014E514EA54DB14D6552551B212AD163F67
:1028D000163F163F163F163F163F163F54D415902D
:1028E000159915A6557A555D54D4568C16CC56E0DC
:1028F00052C312B652BB570C05BF16B7105A4483C9
:1029000004D4448344838C72E1A14006A488044E1D
:102910007FA5D843E49D98599043705CD84645D133
:10292000449E049328463046F9430920D0007000A5
:10293000D059DC0050434489044E0049D00054A0D3
:10294000000200020002000214A814A8000214A849
:1029500090020001792454AF392554AF3926D99F0C
:10296000C00299AB0833112C4963890FA05240066D
:1029700054BBCFABD9BE005299A29C02D8434006AB
:10298000743E9406105AEFA614C714C814C8491808
:102990007947D99F71A254D299A19C02D843394654
:1029A000D99F71A106AD0043084212AD8FA544FE28
:1029B000D059C002DC4E8FA644FED059C001DC4D78
:1029C0000510D05980009C4C44EF8FA644FED0598E
:1029D000C00144E38FA544FED059C00244E38FA553
:1029E000E1A1100004F5005204F5D846D000792486
:1029F000D99F9046C04C06929C4644F198472402C9
:102A00008FA6E1A24006150F90547522D0007000E9
:102A1000F93D492EE04710000001000004D40001F8
:102A20002402705AEFA64006151E9054051605198B
:102A3000000105CB449E000168590001400691AF9A
:102A40004000800014E3005B405A90547522D0008F
:102A50007000F93D492ED843D846E059D000800097
:102A600090469DA35046052C3FABD861D862904359
:102A70007924D99F9043C1A3986005DC984740060C
:102A8000354A940690540543454745D1055205CB38
:102A90000552441F18010833122F5043455000526D
:102AA000D8430534D0007555484512AD154B115B20
:102AB00051905195519A1161519C8FA544FE75BB5F
:102AC00004CC04AA35BC04CC04AC75BD04CC44AE23
:102AD0008C7245BE4006743E94063FAB05F2D05959
:102AE00098007FA605F2D059D8017FA505F2D059EC
:102AF000D80205B38FA644FE75BB04CC04AA35BC2E
:102B000004CC04ACCE9545BE4006743E94063FAB63
:102B100005F2D05998007FA605F2D059D80105B327
:102B200004AA4006743E94063FAB05F2D0599800C3
:102B300005B38FA644FE3F9899AD04AC4006743EA1
:102B400094067FA605F2D059D80105B38FA544FE9F
:102B50003F9899AD44AE4006743E94067FA505F2B9
:102B6000D059D80205B33FABD9A0CFABD9ACC94639
:102B7000D99F08421300401140120013D843C1A04E
:102B8000981180118011100015C60002A043400664
:102B900015CA04D400029C02D840793CF05B492756
:102BA00000409C02D840904375EBD8019043393BDC
:102BB000B05F9001400000409C02D840905405DF77
:102BC00045EE904375EBD8019043393BF05B9001A3
:102BD0004000E000004045CA4927492E393BF05BE0
:102BE000E0000040D8439C0298413FABD845904359
:102BF0009DA6D86190439DA39860905405FE06134E
:102C00009043705CF94349184006A043985951A07D
:102C1000062945D1449E0620685970596C433FAB44
:102C2000904397FF0620491E51A0062905CB449EDC
:102C3000061C3FABD843460C705AEFA6400616243C
:102C4000DC60404144251801DC60400691AF020081
:102C500005B305DC98474006362394069054062FAA
:102C6000463345D1063405CBD0003637484512AD42
:102C700011F111C111E91201121611F41201CF98CC
:102C8000F1AFD8617701B1A1492E9812DC12E1A20F
:102C9000986081BFEFA51000099B065100003FAB73
:102CA000D9AA000411B006587FA608A9465C1401F1
:102CB000D461D5B140030052495651B10662066253
:102CC000066B066B766F08A9465C140179420859B9
:102CD0000670140108D13FAB99B0D9B108D1006496
:102CE00051B1067506754885488551AA068A77014F
:102CF000B1B0984708FA48857688B1B04927D8100E
:102D00009C1099A13689D852CF98F1B1D862441F4E
:102D100001C008E7095248857924D99F31AF084E90
:102D20000692488598129C0298417F996D9F3FA416
:102D300098538012801280128000BFAAD00038DB26
:102D4000F93B98489D9FD8571000D99F084212A779
:102D500010530698C946D99F4041D8109C0298410B
:102D60007FA69853C010C0109C109812069D06C2F2
:102D70003FABDDA298607947D99F0833114F70604F
:102D8000084212ADC00299AB7947D99F3FAB99A2D7
:102D90000833114F496300527FA6F1C6100046DE8A
:102DA000393E98608FA6F1C6D8644988790F986338
:102DB000400671C8D462306400044060794146D155
:102DC000793F986031C646D476F3D8527701B04740
:102DD00098607702B0474927D8109C10D8611060DE
:102DE00006F49C6104CC48FE506146F9DC6044BCAA
:102DF00048FE9C6104CCDC6044BC3FABD9AC99ADCF
:102E00004419403F4FC079489D9FD85431A92402AE
:102E100006AD9C54D99F0001372B40064A09772CF8
:102E2000D9BD3F9D40060A0B00043FA8D84387291F
:102E30009043D9B250434716872A99B399B6D9B867
:102E40003FA799AE4003372E000408A9472F14016D
:102E500048850BBD4FBD007CC1FF004C41F4794259
:102E600008594734140108D1C72D40064609CF9DA3
:102E70004006060B3F98D9BD4401084252BB0000F2
:102E80000000000000000000000000000000000042
:102E90000000000000000000000000000000000032
:102EA0000000000000000000000000000000000022
:102EB0000000000000000000000000000000000012
:102EC0000000000000000000000000000000000002
:102ED00000000000000000000000000000000000F2
:102EE00000000000000000000000000000000000E2
:102EF00000000000000000000000000000000000D2
:102F000000000000000000000000000000000000C1
:102F100000000000000000000000000000000000B1
:102F200000000000000000000000000000000000A1
:102F30000000000000000000000000000000000091
:102F40000000000000000000000000000000000081
:102F50000000000000000000000000000000000071
:102F60000000000000000000000000000000000061
:102F70000000000000000000000000000000000051
:102F80000000000000000000000000000000000041
:102F90000000000000000000000000000000000031
:102FA0000000000000000000000000000000000021
:102FB0000000000000000000000000000000000011
:102FC0000000000000000000000000000000000001
:102FD00000000000000000000000000000000000F1
:102FE00000000000000000000000000000000000E1
:102FF00000000000000000000000000000000000D1
:10300000D45ED1A2742A985AD1A2346AD85B81A224
:10301000A41E4006E40E7FA6D854441C7FA5D854B5
:10302000D1A274E5985F7D15B05AD802D00074DA49
:10303000985C4006900274DCD45E9406402D94485F
:103040004006D00034C39448940694484006D0000B
:1030500074AB14234000800080008000800080005A
:1030600080008000FFFE4000400040004000BFFFA5
:1030700040144014001A001F41CE01C901C601C608
:1030800001C6022701C601D101D201D441D601D81F
:1030900001DB01DE400040004000400040004000F5
:1030A000400040004000400001E101E401E704006D
:1030B000480204054807040A040C440E4410041294
:1030C00008140817481A081D48204823482648298C
:1030D000482C482F400000204060404200A1008062
:1030E000008300C24000400040004000400040001B
:1030F000008000A108420860084208420080406049
:10310000080040600860040040AA40AA40E8084265
:10311000080008004000400040004000400040001F
:103120004000400040004000486408650865404297
:1031300040424042400041620002000200020001A1
:1031400040004C6358C61CE721086529010A612824
:1031500021086529400646A000AB6A5440004000A3
:10316000401171C70001445B400970D2000458113E
:1031700040CC733327104000408170D702F979E8C2
:103180000001471C0A7C16B12FB872EF40004000C6
:10319000439926663BEB74D3468E0D000E9F3FFE8F
:1031A0004050400040D16DC67F2118A74AC020C5BD
:1031B00079992666401E401D01C641C741C841EAB3
:1031C00001EB020F020F021101C641C7001C40149F
:1031D000401E4014401D401441EC41EC01C901CA9D
:1031E00041CB01EE01F041F241F401F641F801F565
:1031F00041F701F902004202420402064208020AB3
:1032000001D241D6020C01C641C8420D01C641C8D7
:1032100001CA01C641C801CA400040004000400048
:103220004000400000C250C200C240000062408224
:103230004082008600850C2310844C634C631CE79D
:1032400054A50CE55CA71CE754A500000000000095
:10325000000000000000000000000000000000006E
:10326000000000000000000000000000000000005E
:10327000000000000000000000000000000000004E
:10328000000000000000000000000000000000003E
:1038000079C99A259A2604050409140709F80002C3
:1038100009F839E39A1C121C09F809F8441009F850
:103820001000441509F809F809F81000441A09F8BD
:1038300009F809F8100009F8441F09F809F8800090
:10384000100009F809F809F8100009F8442909F8E6
:1038500009F8C9E6F9E649EB89C9B9C949EB79C95B
:10386000B9C949EB39E6F9E609EC39E6D813F013A2
:103870009A1CF0138000E21C09EC79CAD80139E6E1
:10388000F00109F139D59A1CE21CDA1D09F809F199
:10389000DE1C8000E000DA1E09F8A21EA21DE21C58
:1038A0009A1F821F09F139D59A1C6A1C6A1C6A1C6E
:1038B000A9D609EC821C9A1C6A1C721C09F279E4D4
:1038C000D8012801300109F279C69A1C2E1C2E1C41
:1038D000DA1D09F8821C09EC39D3D801E9CA6C0158
:1038E000A9D609ECC001A9D509EC79CA9A1C661CB5
:1038F0008000DA1D261DC21D09F2300109F239D5FA
:10390000E000D80109F8C9D5E00064009A1C448998
:1039100009F83001DA1D048D09F8E21C09EC39D5EB
:10392000DA1D8000D801E9CA9A1C8000D61DA001CA
:1039300009F1721CA21D09F239D39A1CDA1DD801B3
:10394000E9CA621D49EB9C0149EB821CA21D09F2E8
:1039500039D59A1CDA1DD80179CA621D09F19C017A
:1039600049EB821C09F239D6A21D09F239D59A1CFD
:103970008000DA1D8000A9E5D8018000621D49EBB6
:103980009C0149EB721C09F1321D09F2C9D39A1C42
:10399000DA1DD801A9E5621D49EB9C0149EBC21D66
:1039A000E21C09F239D69A1CDA1DD80139E5621DEC
:1039B00009F29C0149EB721C09F239D5A21D09F1EB
:1039C00039D6DA1DD80180009A1C6001DA1E09F888
:1039D0003001A21E09F279C99A1579B89A1639B33D
:1039E000DA1779B4DA1839B59A1939B69A1A79B753
:1039F000DA1BD216700092179800D2158000921729
:103A0000DC00D2151000050709F809F809F892172B
:103A1000E000D21A400309F8D21A40060513921B9F
:103A2000100309F8000209F239D5E9CA9217980083
:103A300009F8E21CD216B00009F139D39A1CD2154C
:103A400092172C00921768008000E21C09F139D609
:103A5000DA1D79CADA1ED219640079E4921760017E
:103A60009217D401A00109F2821C09EC321D49EB26
:103A700039B9A9C7DA229222200309F839B3D00054
:103A800098008000E21C09EC400679BBDA1D9C011D
:103A90009A1C4006A21D09F14006C21D4006A00165
:103AA00009F239D5D801E0004006C0019A1C09F896
:103AB000721C4006A00109F179E4D80279CAD80144
:103AC00039C140063002A00109F2356D9A1C4569E2
:103AD00009F84006661C000209F8456F0568821C5B
:103AE000A56E09EC79C90575557940066400240274
:103AF0004000300149EB79C99A1C8000DA1D40066C
:103B00006A1C40066A1C09EC40062A1D40062A1D54
:103B100040062A1D49EB321DE21C09F239E6400637
:103B2000680009F279C99A1C40062E1C721C49EBE8
:103B300080009A1C40062E1C721C09EC39CB9A1C82
:103B400040062E1CA9E509F1721C09F140062E1C45
:103B500049EB721C09ECC9CBDA1D40066E1D321D03
:103B600009F240066E1D49EB321D09EC79E440066E
:103B70002C0009F239D59A1C4006221C49EBDA1DAB
:103B80004006621D49EB39E6DA1E4006621E49EB2B
:103B90004006621E09F180004006621D09F239D01C
:103BA0009A1F79CF9A204006221F09F239D0400689
:103BB000222009F139E0DA2139DFDA2240066221D8
:103BC00009F239E04006622209F139E6D8014006DF
:103BD000600149EB05EC45FC39CE400659F8800000
:103BE000400659F879C9400615F609F880004006E4
:103BF00015FA09F8000209F805FE460F39C2400619
:103C0000A9F880004006E60509F879C94006E609EA
:103C100009F880004006A60D09F8000209F839D518
:103C20004006F9CBA0019A1C4006B9E4A001DA1DB8
:103C30004006F9CBA001DA1E4006B9E4A001A21E9D
:103C4000A21DE21C09EC39D54006B000A0019A1C67
:103C50004006F9D6A001DA1D4006F9D5A001DA1E0A
:103C60004006F9D6A001A21EA21DE21C09EC39D51E
:103C70004006B9C9A00149EB79CA4006F9E6A0019E
:103C800049EB39E54006B9C9A00149EB39E64006E0
:103C9000F9E6A00149EB79C94006F9D5A00149EB45
:103CA0004006F9E5A00109EC80004006F9CEA0012C
:103CB00009EC80004006F9E6A00149EB79C99A1C9D
:103CC0004006B21CA00149EB4006F9E6A00149EB11
:103CD00039E64006B9C9A00149EB39E64006F9E6E4
:103CE00049EB36734845200000000000000000004A
:103CF00000000000000000000000000000000000C4
:103D000000000000000000000000000000000000B3
:103D100000000000000000000000000000000000A3
:103D20000000000000000000000000000000000093
:10400000489479E7DA22D8028000DA2179C9D80108
:1040100079C6400650029A1C79C9640040065221B4
:10402000E21C09EC39E664008000400652229A1C2A
:1040300039E6640040065221E21C09EC3001E9C671
:1040400009EC79CADA228000DA2179C939C7D801A6
:1040500079C9400652229A1C640040065221DA1D9A
:10406000E21C09EC321D6400800040065222DA1D79
:104070006400400652219A1CA21D09EC821CA9C7AB
:1040800009EC300109EC39C7D80139E64006522263
:104090009A1C6400800040065221E21C09ECC9C74A
:1040A0006400400652229A1C64008000400652219F
:1040B000E21C09ECC00149EB39D5D80139C7DA2235
:1040C0008000DA2139D3400652229A1C640040064F
:1040D0005221DA1DE21C09EC321D6400800040060A
:1040E0005222E21C09EC321D640040065221DA1E05
:1040F000A21D09ECC21EA9D509EC3001A9D309EC17
:10410000C9D5D80139D3400652229A1C9C0109F125
:1041100039D6D80139D340065221E21C09EC9C0162
:1041200009F139D5D801C9D340065222DA1DE21C63
:1041300009EC9C0109F239D5D801C9D340065221B6
:10414000A21D09EC9C0109F2321DE9E4A9D509F18F
:1041500079C9D80189E8DA218000DA2240065222A2
:104160008000A00109F279C9640040065221A00133
:1041700009F239E664008000400652228000A00166
:1041800009F139E6640040065221A00109F1C0019D
:10419000A22109EC89C9DA218000DA22D80140067F
:1041A0005222A9D609EC640040065221A9D509EC97
:1041B00080006400800040065222A9D509EC8000EE
:1041C000640040065221A9D609ECC00149EB79C927
:1041D000DA22D8018000DA21400652229A1C3001EE
:1041E00049EB800040065221E21C09EC80009C0152
:1041F00049EB40065222DA1DE21C09EC80009C01CA
:1042000009EC40065221A21D09EC39D5A21D09EC8A
:104210009C0109EC39E5400642018000400600019E
:1042200009F239D6A9D640064202800040060002B3
:104230009A1C09F8721CA9D509F179C9D801400660
:10424000440149EB39E64006440149EB8000D801BE
:1042500080004006440149EB39E64006440109EC80
:1042600039D5A9CB9C0239E6400644029A1C09F8CC
:1042700009F1821C09F279C9D80140060601A001A2
:1042800049EB39E640060601A00149EB8000D80160
:10429000800040060601A00149EB39E6D80140063E
:1042A0000601A00109EC39D5A9CB9C0239E64006EC
:1042B0000602DA1D09F830029A1C09F8821C09F27C
:1042C000C21D09F279C9D8014006480149EB300105
:1042D00049EB39E64006480109EC300149EB800022
:1042E000D80180004006480109EC300109EC39E6AC
:1042F0004006480109EC39D6E9E49C0239D5E9CAFF
:10430000400648029A1C058509F8721C09F279C911
:10431000D80140060A0149EB300149EB39E6400675
:104320000A0109EC300109EC8000D8018000400648
:104330000A0109EC300109EC39D640060A0109EC02
:10434000300109EC39D6E9E49C0239D5E9CA4006C6
:104350000A02DA1D15AC09F89C02DA1E05B009F84C
:10436000321E09F2321D09F279C9D80140060C014A
:1043700049EB39E640060C0109EC300149EB8000BD
:10438000D801800040060C0109EC39E640060C011A
:1043900049EB300109EC8000D80239D5A9CB4006A1
:1043A0000C029A1C09F8721C09F2489405DA05E01F
:1043B00045E4461B79C94006D9C9D5D7100009F88C
:1043C0004006D5D8E00009F8400699E930018000A0
:1043D000A00109F1400699E9C0018000A00109F29D
:1043E00039D5400699E9F00109F139D54006D9CA15
:1043F000E00009F179E7DA1E79C9D80179C64006EB
:1044000099B510009A1C39E69C018000400699B5C8
:104410001000E21C09EC79C99A1C8000400699B38F
:10442000200009F235D99A1C061609F8400699B3FE
:104430006400000209F889C99A1C400699B3680013
:10444000721C09F239CB9A1C400699B32C00821CCD
:1044500009F239E54006D9CA020080004006D9CAEF
:10446000400009F279CAD80139E64006D9CA0400E9
:1044700009F139D6E9CAD80139D54006D9CA46006A
:1044800009F1C00109F279CAD80279C9400699CB6D
:10449000080009F139DFD80139D5A9E54006D9CAA4
:1044A0004A0009F2300109F239E5D80139D5400650
:1044B000D9CA4C00A9D509F139CB9A1C39B3D80116
:1044C00079CA40069001E00009F239C7E00098007F
:1044D00009F8E000980009F8E0009800067009F873
:1044E00009F179DB9A2039D6D8105010067A09F8EC
:1044F000067C09F86A2006757220A010100009F8E1
:1045000009F809F879DD9A2039D698121012468BED
:1045100009F8468D09F86A200686701209F17220A2
:1045200009F279DE9A2039D69811101109F809F8A4
:10453000469C722009F2069E6A20469579DD9A20F3
:1045400079D298127012D813D81030103010301061
:104550003010301030103010B9D280009A1C39E67B
:10456000F013E21C09EC6A20501306A206B909F800
:1045700009F8722009F26A260A080000000000000B
:10458000000000000000000000000000000000002B
:10459000000000000000000000000000000000001B
:1045A000000000000000000000000000000000000B
:1045B00000000000000000000000000000000000FB
:020000040001F9
:00000001FF
