:020000040000FA
:1000000008000803EFFC00010001000100010001ED
:1000100000010001000100010001000100010001D8
:1000200000010001000100010001000100010001C8
:1000300000010001000100010001000100010001B8
:1000400000010001000100010001000100010001A8
:1008000008000803EFFF00010001000100010001E2
:1008100000010001000100010001000100010001D0
:1008200000010001000100010001000100010001C0
:1008300000010001000100010001000100010001B0
:1008400000010001000100010001000100010001A0
:101000000008600EB063B0655062600BB0037B985F
:10101000000DC002000D301A1A8150627B9BB02176
:10102000B024B022B027C020C025C023C026DB9D3D
:101030001B20C020C025C023C026DB801B2050629F
:10104000506250647B86200030513153315331530C
:101050005064B0037B89000DC002000D3061315334
:101060005064600E500120003070315331533153C1
:101070005064000D3079315350647B86800020002D
:1010800031533153308931535064B0037B89000DA3
:10109000C002000D309831535064600E5001800042
:1010A000B00320033153315330AD315350648000CD
:1010B0002000315331533153000D30BC50647B86D6
:1010C000B003200330CD3153315331535064B066F7
:1010D0007B89000DC067000D30DC315350647B8686
:1010E000000DC002000D30EA31535064600E500113
:1010F000B003200330FD3153315331535064B003FA
:1011000020033153310A3153315350647B868000C0
:10111000B003200331533153311D31535064B06655
:101120007B89000DC067000D312D31535064600E76
:1011300050018000B003200331533153314131530A
:1011400050648000B0032003315331533153315088
:1011500031551A81600EB06550625062000D7BA45B
:10116000000D8003A86A7B7F5064B066000D7BA1F0
:10117000406A000D317832F36002000D318132F3A4
:101180002066316A5064000D7BA4000DC068000D1C
:10119000319532F350646002000DC06B000D31A335
:1011A00032F3600EB06550625064000D7BC1A86AD6
:1011B000000D7BA8406A000D31BD32F35064000D74
:1011C0007BC1000DC068000D31CC32F35064600269
:1011D000000DC06B000D31DB32F35064000D7BADB0
:1011E000406A000D31E832F35064000D7BC1000D00
:1011F000C068000D31F932F350646002000DC06B1D
:10120000000D320632F35064000D7BB0406A000DD1
:10121000321432F35064000D7BB9000DC068000D2C
:10122000322432F350646002000DC06B000D323383
:1012300032F35064000D7BB0406ADB68000D32422F
:1012400032F35064000D7BA8000DC068000D3253CE
:1012500032F350646002000DC06B000D326032F357
:101260005064000D7BC4A86A000D7BB5406A000D78
:10127000327432F35064000D7BBC000DC068000D69
:10128000328432F350646002000DC06B000D329363
:1012900032F35064000D7BB5406ADB70000D32A361
:1012A00032F35064000D7BAD000DC068000D32B20A
:1012B00032F350646002000DC06B000D32C032F397
:1012C000600EB06550625064000D7BA1000D80037C
:1012D000A86A000D7BA1406A6068200032F332F3F7
:1012E00032F35064606B200032F332F332F332F5A4
:1012F00000101A8172F1B063600EB06550625064E4
:101300007B70B0667B68B00348676067DB70000D78
:101310003315339450646002DB68000D332033943E
:1013200050647B68B0037B704801DB70000D333282
:10133000339450646002DB68000D333E3394506494
:101340007B68B0037B86DB70B00033945064B000E0
:10135000339450644801DB70000D335E3394506465
:101360006002000D3368339450647B68B0037B8F58
:10137000DB68B00033945064B0003394506448018B
:10138000DB70000D3389339450646002000D33929A
:10139000339433971A81600EB065506250647B6855
:1013A0005001000D33A834185064B00033B0341825
:1013B00050645001B00033BA34185064B0037B70ED
:1013C000000DC002000D33CB341850647B895001EE
:1013D000B00033D6341850645001000D34185064F6
:1013E000B000341850647B68B06650676067000DC9
:1013F00033F43418506450677B70000DC002000D48
:101400003405341850647B89B06650675067606754
:10141000000D34173418341B1A81600EB065506209
:1014200050647BC88000B0697B76B0667BC7586922
:10143000B000343634DD000DC068000D344134DDB9
:101440002066342B506450647BC8000DC068000DCA
:10145000345534DD50647BC8B0697B76B0667BC799
:1014600080005869B000346A34DD000DC068000D9A
:10147000347434DD2066345C506450647BC8800072
:10148000000DC068000D348B34DD50647B70B003F8
:101490007B89C002B000349A34DD5064C002B000D1
:1014A00034DD5064000D34DD50647B68B0037B9103
:1014B000C002B00034B834DD5064C002B00034DD86
:1014C0005064000D34DD50647BC78000B0037BC7DF
:1014D000C002200034DD34DD34DD34DE1A81600EDC
:1014E000B065506250647B8650017B86B00034F357
:1014F00035645064B003000DC001DB86000DC002EE
:10150000000D3507356450647B8FB003000DC001BA
:10151000DB8F000DC002000D351C356450647B70FC
:10152000B003000DC001DB70000DC002000D3532AC
:10153000356450647B68B003000DC001DB68000DAA
:10154000C002000D354935645064600E20003564DA
:1015500035573564356450647B67200035643564E5
:10156000356435671A81600EB065506250647B86C1
:1015700050019B87B000357A35DC5064B0037B8F17
:10158000000DC002000D358A35DC50649B8EB0031F
:101590007B86000DC002000D359D35DC50649B71CB
:1015A000B0037B68000DC002000D35AE35DC506421
:1015B0009B69B0037B70000DC002000D35C135DCA6
:1015C0005064800F200035DC35DC35DC50649B66D0
:1015D000200035DC35DA35DC35DC35DF1A81600E8C
:1015E000B06550625064600EB0032003368C35F451
:1015F00035F2368C50647B67B005200535FE360128
:10160000368C50647B86DB7AB005368C5064DB68A0
:10161000000D3616368C50647B79000DC004000D29
:10162000368C6004B06636297B79000DC067000DEA
:101630003634368C50647B7AB0057B8F000DC00445
:10164000B005368C5064DB70000D364F368C50641C
:101650007B79C004000D368C6004B066365E7B7901
:10166000C067000D3668368C50647B768000B0050C
:101670003675368C5064DB76000D367F368C5064C0
:101680007B76C004000D368A368C368F1A81600E48
:10169000B065506236A1FFF4FFECFFEAFFFD0002E7
:1016A0007B70DB708000B0665064A067769ADB7652
:1016B000000D36B6375950645067A067769ADB79CB
:1016C000000D36C7375950645067A067769ADB7AA9
:1016D000000D36D6375950645067A067769ADB7094
:1016E000000D36E6375950645067A067769ADB687C
:1016F000000D36F737597B70DB708000B0665064A0
:10170000000DA067769CDB76000D370F37595064CB
:101710005067000DA067769CDB79000D37213759A3
:1017200050645067000DA067769CDB7A000D37335C
:10173000375950645067000DA067769CDB70000D30
:101740003744375950645067000DA067769CDB68BA
:10175000000D37563759375A1A81600EB0655062FE
:1017600050625062506238001768176B84C10001E4
:101770000001000100010001000100010001000161
:101780000001000100010001000100010001000151
:101790000001000100010001000100010001000141
:1017A0000001000100010001000100010001000131
:1017B0000001000100010001000100010001000121
:1017C0000001000100010001000100010001000111
:1017D0000001000100010001000100010001000101
:1017E00000010001000100010001000100010001F1
:1017F00000010001000100010001000100010001E1
:1018000050627B70B0697B68B06A7B76B0037B7A8C
:10181000A86ADB68000D381B1A816002DB70000DBE
:1018200038241A817B768000C06B000D38301A8115
:101830007B7A8000C068000D383C1A817B70B069EB
:101840007B68B06A7B76B0037B86DB7AA86AB000DF
:1018500038551A81DB68000D385C1A816002DB7034
:10186000000D38661A817B768000C06B000D3872DF
:101870001A817B7A80005001C068000D38811A817E
:101880007B7AB0037B76A8038000DB76000D38936B
:101890001A8160028000DB7A000D389F1A817B7A02
:1018A000B0057B76B0037B70A8058000DB7A000D65
:1018B00038B41A8160048000DB76000D38C01A81CC
:1018C0006002DB68000D38CA1A81506250647B7A6E
:1018D000B0667B76B8678000DB7A000D38E1394F5F
:1018E000506460678000DB76000D38EE394F50643D
:1018F0007B7AB0667B86DB76B867B0003901394FFA
:1019000050648000DB7A000D390D394F50646067F8
:1019100050018000DB76000D391C394F50647B8606
:10192000DB7AB801B000394F50645001B00539314D
:1019300060048000DB7A000D394F6004B0663940E6
:101940007B7A8000C067000D394C394F39511A81BC
:10195000600EB06550627BC7B06A7BC88000B0691A
:101960007B765064B0666068C06BB000397039DA5D
:10197000B06920663964506460688000DBC8000D7F
:10198000398539DA50647B86DB70B00039DA50640F
:10199000B00539946004B066399B200539A439DA62
:1019A00039DA39DA5064206639DA39B039DA39DAB5
:1019B00050647B8FDB68B00039DA5064B00539C100
:1019C0006004B06639C7200539CB39DA39D039DA45
:1019D000206639D539D639DA39DC1A81600EB0651E
:1019E000506250647BCBFBCF8000DBD3000D39F21B
:1019F0003A2550647BCBFBD18000DBD5000D3A0249
:101A00003A2550647BCDFBCF8000DBD6000D3A1326
:101A10003A2550647BCDFBD18000DBD9000D3A2301
:101A20003A253A261A81600EB065506250625062C3
:101A30005062506250625062506250625062506216
:101A40005062506250625062506250625062506206
:101A500050625062506250625062000D7A63A80A70
:101A600020000800280108003001080038000800A4
:101A7000400008007B97B063600EB0651A813A7F22
:101A8000000D486B7B52B0037B7AB8021AE1000D5F
:101A90000411DB5DB80220003A8A7B51B0666062B7
:101AA000B0691AE11AEE7B54B0666064B0691AE15D
:101AB0001AEE7B831AE1000D0412000D0034FB8442
:101AC00020003ABA600E1AE1000D0412000D003435
:101AD000FB8420003AD93ACD000D486B000403E99D
:101AE000B0693AE57ADE20003AE660680004606892
:101AF000B021602060206020FB7DA0017B2FB024FE
:101B000060256025602560256025C067B066606837
:101B1000FB7DA0017B2FC067B066000D041100049F
:101B200020003A803A8020003A8000040001002A18
:101B3000000700320037001F003D00380026003B40
:101B4000003E00FE01FF0FFE3FFE40007FF97FFCDC
:101B5000B000A00190018000FFF1F001EFFFC00193
:101B6000BFFF80068003FFFEFFFDFFFBFFF8FFF7CE
:101B7000000200040007000B00130015000E002FE8
:101B80000002008040007FFF7FFC7FFA7FF9800029
:101B9000800380058006FFFE100C5554AA010A73CD
:101BA00031A37D61539800010001FFFEFFFE00019B
:101BB0000002FFFEFFFD7FFF7FFF800080007FFFB0
:101BC0007FFC8000800329CA7D5EAAAB5554CCCD32
:101BD00033328889222344451110EEEFBBBADDDC95
:101BE000777666679998999866671BEA1BECBFB889
:101BF00000010001000100010001000100010001DD
:101C000000010001000100010001000100010001CC
:101C100000010001000100010001000100010001BC
:101C200000010001000100010001000100010001AC
:102000005062600EB0655064480E080F281A5002E6
:102010002815281600041A8128206002000D2816B1
:1020200050647B6D2000286E286E282F286E506427
:102030002000283B286E286E286E5064B06C206CFF
:102040002849286E286E286E50642000286E285477
:10205000286E286E506480002000286E286E286E3E
:1020600050642000286E286D286E286E28701A8112
:1020700050647B73000DC8A350647B6D000DC88253
:1020800028A250647B865001000DC8A35064600EE6
:10209000000DC89628A250647B67000DC8A028A236
:1020A00028A41A817B45B0225064202228AE28B093
:1020B00028B328B58022C023000D4022000DC02384
:1020C0006023E022DB68000D28CD28E35064000D7A
:1020D000E022000D20226023DB68000D28E028E3C9
:1020E00028E51A817B70B06C7B68B06F000D606E64
:1020F000000D806F5064DB70000D28FE2922600205
:10210000DB68000D290929225064000D606EDB6830
:10211000000D291729226002DB70000D29212922D8
:1021200029241A81292B800000046926B06C6929B2
:10213000B06F7B70006D5064DB70000D2941295039
:10214000600E006D506420002950295029502953F9
:102150001A8150647B73000D298D50647B6D000DD6
:10216000298D50647B865001000D298D50647B8F32
:10217000DB68000D298D5064600E000D2981298DCA
:1021800050647B67000D298B298D298E1A817B86EF
:10219000DB735064B06C2A247B68B06F7B8FB00314
:1021A0007B865064A86FDB68000D29AF2A2460028B
:1021B000DB70000D29B82A24000D586C000D586FF3
:1021C00050647B898000C06D000D29CF2A247B914B
:1021D0008000C06E000D29DB2A2450647B70000D46
:1021E0005800000D580020002A242A242A24506474
:1021F000600E000D580020002A242A002A242A24D8
:10220000480E000D580320032A242A112A242A24C8
:10221000000D480E000D580520052A242A222A24E4
:102220002A242A271A817B75B0057B68B0037B734B
:1022300050644003DB6E000D2A3C2AD76002DB733A
:10224000000D2A472AD77B86B0717B8FB0727B6BDB
:10225000B0037B7550644072DB68000D2A602AD79A
:1022600020032AD72A6A2AD72AD76070DB68000D94
:102270002A742AD76073DB70000D2A7E2AD7506437
:10228000507320722AD72AD72AD75064600EB00321
:1022900050025001DB68000D2A9C2AD76002DB68DF
:1022A000000D2AA62AD77B8FB06C7B86B06F7B751A
:1022B000B0037B6D5064406FDB70000D2AC02AD7DD
:1022C000606DDB70000D2ACA2AD7606EDB6B000DD3
:1022D0002AD42AD72AD81A8150647B70000D500165
:1022E000DB6B000D2AE82B577B73000DFB875064D6
:1022F000C002DB8F000D2AFA2B577B86000DFB6A8C
:1023000050645803DB86000D2B0D2B577B8F5064D8
:10231000000DFB72B077DB70000D2B1F2B57000DEB
:10232000507650647B8F000DE077DB68000D2B3218
:102330002B576002DB91000D2B3D2B5750647B70B7
:102340005877DB70000D2B4A2B576076DB70000D41
:102350002B542B572B581A817B865001B0032C2B02
:1023600050647B8FDB68B06F2C2B50647B70B06641
:102370007B4AB0037B67000D206620032C2B2B8546
:102380002C2B2C2B50647B68B0667B61B003600EF5
:10239000000D2066DB61000D2B9D2C2B20032C2BC8
:1023A0002C2B2C2B7B61B0667B4AB0697B8FB003F2
:1023B0007B5E000D20695064B802000D2069DB8649
:1023C000000D2BC72C2B6002DB49000D2BD02C2BD2
:1023D00050647B86B0037B5E000D2069DB8C000DB2
:1023E0002BE52C2B6002DB70000D2BEF2C2B7B914F
:1023F000B06A480E7B89000D206A5064DB86000DB0
:102400002C052C2B6002DB89000D2C0F2C2B50642B
:10241000000D486D6004DB70000D2C1E2C2B606DD0
:10242000DB6D000D2C282C2B2C2D1A8150647B6722
:10243000B003000D400320002C662C412C662C6656
:102440005064000D400320002C662C502C662C6636
:1024500050647B8FB0037B86000D4003DB70000D62
:102460002C652C662C691A8150647B58FB7D000D0D
:102470002C742CAC50647B7CFB71DB68000D2C82CF
:102480002CAC7B70B003B06CA001C0015064000D97
:10249000C002DB68000D2C9A2CAC000DA002C0011C
:1024A0005064DB70000D2CAA2CAC2CAF1A817B6819
:1024B000B0037B705064000D8003DB70000D2CC3F3
:1024C0000D14600E2CC900040CC75064A805DB6D08
:1024D000000D2CD72D1520032D152CE12D152D15B4
:1024E0006004DB68000D2CEB2D157B68B0057B705C
:1024F0005064000D6004DB70000D2CFF2D15600290
:10250000DB70000D2D082D156004DB70000D2D1300
:102510002D152D161A817B8FB0057B6858055064E8
:102520008005B0002D585064000D6004B0002D32BD
:102530002D58506420002D582D582D587B4AB00539
:10254000506458055805B0002D5850645805DB6894
:10255000000D2D572D582D5B1A815064000D7A66A1
:10256000A80A0D630D65CB300001000100010001D8
:102570000001000100010001000100010001000153
:102580000001000100010001000100010001000143
:102590000001000100010001000100010001000133
:1025A0000001000100010001000100010001000123
:102800005062600EB06550647B68000D0405DB709B
:10281000000D2816283450644804000D0002DB70B7
:10282000000D2826283450646002DB70000D283229
:10283000283428371A817B6DB0037B895064000DE2
:102840001003DB70000D284A28677B895064000D57
:102850001402DB70000D285B28676002DB70000D3E
:102860002864286728681A817B91B0037B495064EB
:10287000000D0803DB68000D287C28BA7B495064F2
:10288000000D0C02DB68000D288C28BA6002DB68A2
:10289000000D289728BA7B768000B0037B76500124
:1028A0005064000D1802DB75000D28AE28BA6002D6
:1028B000DB76000D28B928BA28BC1A8150647B86C3
:1028C000B0777B8FB0786076B0056004B0032000ED
:1028D00028D928FD28EC290A000DC002DB70000D64
:1028E00028E5290A60768000B00528CBB077C0794A
:1028F000DB70000D28F8290A507928C76076C07966
:102900002000290A290A290A290C1A8150647B8F80
:10291000B0747B860008DB86DB70B005291E2005BD
:102920002928297429442974B072295F6073C075FD
:10293000DB70000D293929746075DB8FDB68B00509
:102940002942291EB07129746070C075DB70000DBA
:102950002955297400076073000D587429142074D8
:102960002974297429746073DB8F000D297129740F
:10297000000729771A81000D7A6AA80A097C097F65
:102980000BEB00010001000100010001000100014A
:10299000000100010001000100010001000100012F
:1029A000000100010001000100010001000100011F
:1029B000000100010001000100010001000100010F
:1029C00000010001000100010001000100010001FF
:103000005062600EB065506450645064000D7A6F79
:10301000A80A08120814FB56000100010001000173
:103020000001000100010001000100010001000198
:103030000001000100010001000100010001000188
:103040000001000100010001000100010001000178
:103050000001000100010001000100010001000168
:103800005062600EB06550647B86B06F7B86000DA1
:10381000E06FC002DB8F2000281A281C28A1606EF0
:10382000DB68000D2829080A50647B86B06F7B682E
:10383000000DE06F20002838283B28A16002C06EF0
:1038400020002845284628A1606EDB68000D28521C
:10385000082D50647B86B06C606D000DFB87C00244
:10386000DB8F20002867286828A1606DDB68000DC9
:103870002875085650647B86B06C606D000DFB693E
:1038800020002885288628A16002C06D200028918C
:10389000289228A1606DDB68000D289E087828A278
:1038A0001A81000D7A72A80A08A908AA04BD0001AD
:1038B0000001000100010001000100010001000100
:1038C00000010001000100010001000100010001F0
:1038D00000010001000100010001000100010001E0
:1038E00000010001000100010001000100010001D0
:104000005062600EB0657B5BB07250737B4AB06CDF
:104010007B61B06F7B8FB0037B4950647B4AB06695
:104020007B8FB0037B49000D2066B0786002DB68AF
:10403000000D2837297150647B61B0667B8FB00317
:104040007B49000D2066C0792000284C284F29713B
:104050006002DB68000D285B297150647B4AB06602
:104060007B86B0037B5E000D2066B077C0792000B0
:104070002873287529716002DB70000D2880297172
:1040800050647B61B0667B86B0037B5E000D20666A
:10409000C07620002897289829716002DB70000DF7
:1040A00028A429717B4CC076000D28AE297150647C
:1040B0007B4AB0667B86B0037B49000D2066DB8FB0
:1040C000000D28C7297150647B4FB066480E7B4FA6
:1040D000000D2066DB8F000D28DC29716002DB6497
:1040E000000D28E62971600EB06C7B67B06F5064DC
:1040F000600EB066B003000D2066B0782003297111
:1041000029062905297150647B67B066480E000DA9
:104110002066B077C0792000291B291D2971600213
:104120005064600EB0667B67B003600E000D2066C1
:10413000C0792000293629392971200329712944A1
:104140002971297150647B67B066B003600E000D61
:104150002066C07620002959295A29712003296038
:10416000296329717B86C076000D296F2971297218
:104170001A813A7509750976AC3E0001000100010B
:104180000001000100010001000100010001000127
:104190000001000100010001000100010001000117
:1041A0000001000100010001000100010001000107
:1041B00000010001000100010001000100010001F7
:1048000008000803F00E0001000100010001000192
:104810000001000100010001000100010001000190
:104820000001000100010001000100010001000180
:104830000001000100010001000100010001000170
:104840000001000100010001000100010001000160
:1050000008000803F0100001000100010001000188
:105010000001000100010001000100010001000188
:105020000001000100010001000100010001000178
:105030000001000100010001000100010001000168
:105040000001000100010001000100010001000158
:1058000008000803F013000100010001000100017D
:105810000001000100010001000100010001000180
:105820000001000100010001000100010001000170
:105830000001000100010001000100010001000160
:105840000001000100010001000100010001000150
:1060000008000803F0150001000100010001000173
:106010000001000100010001000100010001000178
:106020000001000100010001000100010001000168
:106030000001000100010001000100010001000158
:106040000001000100010001000100010001000148
:1068000008000803F016000100010001000100016A
:106810000001000100010001000100010001000170
:106820000001000100010001000100010001000160
:106830000001000100010001000100010001000150
:106840000001000100010001000100010001000140
:1070000008000803F019000100010001000100015F
:107010000001000100010001000100010001000168
:107020000001000100010001000100010001000158
:107030000001000100010001000100010001000148
:107040000001000100010001000100010001000138
:1078000008000803F01A0001000100010001000156
:107810000001000100010001000100010001000160
:107820000001000100010001000100010001000150
:107830000001000100010001000100010001000140
:107840000001000100010001000100010001000130
:1080000008000803F01C000100010001000100014C
:108010000001000100010001000100010001000158
:108020000001000100010001000100010001000148
:108030000001000100010001000100010001000138
:108040000001000100010001000100010001000128
:1088000008000803F01F0001000100010001000141
:108810000001000100010001000100010001000150
:108820000001000100010001000100010001000140
:108830000001000100010001000100010001000130
:108840000001000100010001000100010001000120
:1090000008000803F0200001000100010001000138
:109010000001000100010001000100010001000148
:109020000001000100010001000100010001000138
:109030000001000100010001000100010001000128
:109040000001000100010001000100010001000118
:1098000008000803F023000100010001000100012D
:109810000001000100010001000100010001000140
:109820000001000100010001000100010001000130
:109830000001000100010001000100010001000120
:109840000001000100010001000100010001000110
:10A0000008000803F0250001000100010001000123
:10A010000001000100010001000100010001000138
:10A020000001000100010001000100010001000128
:10A030000001000100010001000100010001000118
:10A040000001000100010001000100010001000108
:10A8000008000803F026000100010001000100011A
:10A810000001000100010001000100010001000130
:10A820000001000100010001000100010001000120
:10A830000001000100010001000100010001000110
:10A840000001000100010001000100010001000100
:10B0000008000803F029000100010001000100010F
:10B010000001000100010001000100010001000128
:10B020000001000100010001000100010001000118
:10B030000001000100010001000100010001000108
:10B0400000010001000100010001000100010001F8
:10B8000008000803F02A0001000100010001000106
:10B810000001000100010001000100010001000120
:10B820000001000100010001000100010001000110
:10B830000001000100010001000100010001000100
:10B8400000010001000100010001000100010001F0
:10C0000008000803F02C00010001000100010001FC
:10C010000001000100010001000100010001000118
:10C020000001000100010001000100010001000108
:10C0300000010001000100010001000100010001F8
:10C0400000010001000100010001000100010001E8
:10C8000008000803F02F00010001000100010001F1
:10C810000001000100010001000100010001000110
:10C820000001000100010001000100010001000100
:10C8300000010001000100010001000100010001F0
:10C8400000010001000100010001000100010001E0
:10D0000008000803F03100010001000100010001E7
:10D010000001000100010001000100010001000108
:10D0200000010001000100010001000100010001F8
:10D0300000010001000100010001000100010001E8
:10D0400000010001000100010001000100010001D8
:10D8000008000803F03200010001000100010001DE
:10D810000001000100010001000100010001000100
:10D8200000010001000100010001000100010001F0
:10D8300000010001000100010001000100010001E0
:10D8400000010001000100010001000100010001D0
:10E0000008000803F03400010001000100010001D4
:10E0100000010001000100010001000100010001F8
:10E0200000010001000100010001000100010001E8
:10E0300000010001000100010001000100010001D8
:10E0400000010001000100010001000100010001C8
:10E8000008000803F03700010001000100010001C9
:10E8100000010001000100010001000100010001F0
:10E8200000010001000100010001000100010001E0
:10E8300000010001000100010001000100010001D0
:10E8400000010001000100010001000100010001C0
:10F0000008000803F03800010001000100010001C0
:10F0100000010001000100010001000100010001E8
:10F0200000010001000100010001000100010001D8
:10F0300000010001000100010001000100010001C8
:10F0400000010001000100010001000100010001B8
:10F8000008000803F03B00010001000100010001B5
:10F8100000010001000100010001000100010001E0
:10F8200000010001000100010001000100010001D0
:10F8300000010001000100010001000100010001C0
:10F8400000010001000100010001000100010001B0
:020000040001F9
:1000000008000803F03D00010001000100010001AB
:1000100000010001000100010001000100010001D8
:1000200000010001000100010001000100010001C8
:1000300000010001000100010001000100010001B8
:1000400000010001000100010001000100010001A8
:1008000008000803F03E00010001000100010001A2
:1008100000010001000100010001000100010001D0
:1008200000010001000100010001000100010001C0
:1008300000010001000100010001000100010001B0
:1008400000010001000100010001000100010001A0
:1010000008000803F0400001000100010001000198
:1010100000010001000100010001000100010001C8
:1010200000010001000100010001000100010001B8
:1010300000010001000100010001000100010001A8
:101040000001000100010001000100010001000198
:1018000008000803F043000100010001000100018D
:1018100000010001000100010001000100010001C0
:1018200000010001000100010001000100010001B0
:1018300000010001000100010001000100010001A0
:101840000001000100010001000100010001000190
:00000001FF
